:100000000C9462000C947F000C947F000C947F0091
:100010000C947F000C947F000C947F000C945B0385
:100020000C947F000C947F000C947F000C947F0054
:100030000C947F000C947F000C947F000C947F0044
:100040000C94B7030C947F000C947F000C947F00F9
:100050000C947F000C947F000C947F000C947F0024
:100060000C947F000C947F00000000002400270007
:100070002A000000000023002600290000000008DC
:10008000000201000003040700000000000000005F
:10009000010204081020408001020408102001021F
:1000A0000408102000000000250028002B00040494
:1000B0000404040404040202020202020303030310
:1000C0000303020011241FBECFEFD8E0DEBFCDBF77
:1000D00011E0A0E0B1E0E4EFFCE002C005900D9279
:1000E000A630B107D9F721E0A6E0B1E001C01D922A
:1000F000A632B207E1F70E9401040C9478060C9432
:100100000000833081F028F4813099F08230A1F032
:1001100008958730A9F08830B9F08430D1F4809107
:1001200080008F7D03C0809180008F778093800056
:10013000089584B58F7702C084B58F7D84BD0895FE
:100140008091B0008F7703C08091B0008F7D809345
:10015000B0000895CF93DF93282F30E0F901E458E1
:10016000FF4F8491F901E057FF4FD491F901E25517
:10017000FF4FC491CC2391F081110E948100EC2F9C
:10018000F0E0EE0FFF1FEE58FF4FA591B491EC91F8
:10019000ED2381E090E021F480E002C080E090E077
:1001A000DF91CF9108951F93CF93DF93282F30E0F5
:1001B000F901E458FF4F8491F901E057FF4FD491C2
:1001C000F901E255FF4FC491CC23C9F0162F8111DC
:1001D0000E948100EC2FF0E0EE0FFF1FEC55FF4F67
:1001E000A591B4918FB7F894111105C09C91ED2F92
:1001F000E095E92302C0EC91ED2BEC938FBFDF91EA
:10020000CF911F91089590910001981324C0E2ECC2
:10021000F0E0E4919FEF90930001E130B9F098F0A5
:10022000E230C9F4909170009D7F9093700091E04E
:100230009093B0009091B100987F94609093B1003A
:100240001092B30008C010926E0005C090916F002C
:100250009D7F90936F0060E00C94D300CF93DF9369
:1002600090E0FC01E057FF4F2491FC01E255FF4F65
:100270008491882361F190E0880F991FFC01E8596F
:10028000FF4FC591D491FC01EC55FF4FA591B4915E
:10029000611109C09FB7F8948881209582238883D3
:1002A000EC912E230BC0623061F49FB7F894388133
:1002B000822F809583238883EC912E2B2C939FBFD4
:1002C00006C08FB7F894E8812E2B28838FBFDF916B
:1002D000CF910895FF920F931F93CF93DF9300D098
:1002E00000D0CDB7DEB720910001243021F02F3FA0
:1002F00009F019C104C0E2ECF0E0049172C024E0FE
:1003000020930001E2ECF0E004910F3F09F40BC1EF
:10031000013009F1023009F441C0011162C014BC7E
:1003200015BC24B5226024BD25B5216025BDE2EBB6
:10033000F0E0E491F0E0EE0FFF1FEC55FF4F259148
:1003400034913093190120931801E4E9F0E0E4912D
:10035000E093170148C01092800010928100209114
:1003600081002860209381002091810021602093EA
:100370008100E2EBF0E0E491F0E0EE0FFF1FEC55BE
:10038000FF4F259134913093160120931501E4E934
:10039000F0E0E491E093140101E025C01092B00078
:1003A0001092B1002091B00022602093B000209103
:1003B000B10021602093B100E2EBF0E0E491F0E0C5
:1003C000EE0FFF1FEC55FF4F259134913093130131
:1003D00020931201E4E9F0E0E491E093110102E0DE
:1003E00002C007FDA0C09B01AC0161E084E029834D
:1003F0003A834B835C830E942E0129813A814B8191
:100400005C81002309F47DC0023009F1013091F4D0
:1004100080918100887F8160809381002115310562
:100420004105510581F42FEF3FEFA901AFE3FA2E0B
:100430001FE13EC0FFE3FF2E1FE1211531054105FD
:100440005105F1F012C0EFE3FE2E1FE10EC08091C6
:10045000B100887F83608093B1002115310541058B
:100460005105D1F179EFF72E10E0A0EDB7E00E9431
:10047000200628EE33E040E050E00E94330603C03F
:100480002FEF3FEFA901013099F0023051F1011136
:100490004AC0F7BC209322013093230140932401EA
:1004A0005093250180916E00826080936E003BC066
:1004B0008F2D912F909389008093880020931E01A7
:1004C00030931F01409320015093210180916F00D0
:1004D000826080936F0027C02FEF3FEFA90199EF53
:1004E000F92EF092B30020931A0130931B01409330
:1004F0001C0150931D0180917000826080937000F8
:1005000012C085B5887F836085BD21153105410501
:10051000510519F06CE7F62EA7CF2FEF3FEFA90199
:100520008CE7F82EB6CF0F900F900F900F90DF91C1
:10053000CF911F910F91FF9008951F93CF93DF9359
:10054000182FEB0161E00E942E01209711F460E06A
:1005500004C0CF3FD10539F461E0812FDF91CF9105
:100560001F910C94D300E12FF0E0E458FF4FE49189
:10057000E330F9F048F4E130B9F0E230A1F584B5A8
:10058000806284BDC8BD34C0E730E9F0E83019F1BD
:10059000E43049F580918000806280938000D093A0
:1005A0008B00C0938A0024C084B5806884BDC7BD19
:1005B0001FC080918000806880938000D093890064
:1005C000C093880015C08091B00080688093B0000F
:1005D000C093B3000DC08091B00080628093B000E2
:1005E000C093B40005C0C038D1050CF0B5CFAFCF73
:1005F000DF91CF911F9108953FB7F89480910B013F
:1006000090910C01A0910D01B0910E0126B5A89B0F
:1006100005C02F3F19F00196A11DB11D3FBFBA2F94
:10062000A92F982F8827820F911DA11DB11DBC01F4
:10063000CD0142E0660F771F881F991F4A95D1F7B9
:1006400008958F929F92AF92BF92CF92DF92EF92D6
:10065000FF926B017C010E94FC024B015C01C11402
:10066000D104E104F104F1F00E94FC02DC01CB01B1
:1006700088199909AA09BB09883E9340A105B105CB
:1006800070F321E0C21AD108E108F10888EE880E63
:1006900083E0981EA11CB11CC114D104E104F10433
:1006A00019F7DDCFFF90EF90DF90CF90BF90AF9024
:1006B0009F908F9008951F920F920FB60F92112462
:1006C0002F933F934F935F936F937F938F939F935A
:1006D000AF93BF93EF93FF9380911A0190911B0109
:1006E000A0911C01B0911D01892B8A2B8B2B51F1FC
:1006F00080911101E0911201F091130190818927FD
:10070000808380911A0190911B01A0911C01B091EE
:100710001D01181619061A061B06C4F480911A0149
:1007200090911B01A0911C01B0911D010197A1099D
:10073000B10980931A0190931B01A0931C01B093FF
:100740001D0104C0809100010E940301FF91EF91FF
:10075000BF91AF919F918F917F916F915F914F91D9
:100760003F912F910F900FBE0F901F9018951F92E1
:100770000F920FB60F9211242F933F938F939F9355
:10078000AF93BF938091070190910801A091090157
:10079000B0910A013091060123E0230F2D3720F498
:1007A0000196A11DB11D05C026E8230F0296A11DCB
:1007B000B11D209306018093070190930801A09337
:1007C0000901B0930A0180910B0190910C01A09155
:1007D0000D01B0910E010196A11DB11D80930B0179
:1007E00090930C01A0930D01B0930E01BF91AF91B6
:1007F0009F918F913F912F910F900FBE0F901F905F
:100800001895789484B5826084BD84B5816084BD78
:1008100085B5826085BD85B5816085BD80916E009E
:10082000816080936E0010928100809181008260CF
:10083000809381008091810081608093810080910C
:1008400080008160809380008091B10084608093FB
:10085000B1008091B00081608093B00080917A00F7
:10086000846080937A0080917A00826080937A001D
:1008700080917A00816080937A0080917A0080680C
:1008800080937A001092C10062E08EE00E942E01F7
:1008900062E082E10E942E0162E081E10E942E016D
:1008A00061E083E10E942E0161E08CE00E942E0154
:1008B00061E08BE00E942E0161E08AE00E942E013F
:1008C00061E089E00E942E0161E085E00E942E0136
:1008D00061E084E00E942E0161E083E00E942E012D
:1008E00062E087E00E942E0161E082E00E942E011A
:1008F00061E082E00E94D30061E083E00E94D300C7
:1009000068EE73E080E090E00E946A0182E10E945C
:10091000AA00892BD9F761E083E10E94D3001092ED
:10092000100110920F0103E010E0C0910F01D0916F
:100930001001CE3F82E0D807E8F5CE01B8010E9451
:10094000640685E00E949D02BE01CF3FD10519F0EB
:1009500010F06FEF70E08CE00E949D02CF3FD10558
:10096000E9F0E0F0BE016F5F71096F3F710519F0AA
:1009700010F06FEF70E08BE00E949D02CF3F81E0AE
:10098000D80760F0BE016E5F71406F3F710519F0CE
:1009900010F06FEF70E08AE00E949D0266E070E068
:1009A00080E090E00E9421032196D0931001C09333
:1009B0000F01BBCF27E3C22ED12CE12CF12C8EE00E
:1009C0000E94AA00892B09F0B2C081E10E94AA000E
:1009D000892B09F0ACC0C0E0D0E0BE0189E00E94E4
:1009E0009D0260E070E0CB010E9421032196CF3F81
:1009F000D10599F768EE73E080E090E00E94210352
:100A0000CDEFD0E09BEAF92ECF9D612D11246695A4
:100A100070E085E00E949D02BE018CE00E949D0274
:100A200000910F01109110010F3F110571F068F056
:100A300060E070E08BE00E949D020F3F114028F0C3
:100A400060E070E08AE00E949D022197E9F660E094
:100A500083E10E94D30060E070E089E00E949D0283
:100A600060E08CE00E94D3008CE2C82EDD24D39499
:100A7000E12CF12C00E010E087E00E94AA00892B15
:100A800009F04EC060E070E0CB010E946A01CAE04C
:100A900087E00E94AA00892B41F084E00E940301B4
:100AA00061E082E00E94D30030C060E083E00E94F9
:100AB000D30060E082E00E94D3000E94F305A7010A
:100AC00096010E9401066C597F4F8F4F9F4F0E94E5
:100AD000210387E00E94AA00892BF9F661E083E0F8
:100AE0000E94D30061E082E00E94D3000E94F305DF
:100AF000A70196010E9401066C597F4F8F4F9F4FAF
:100B00000E942103C15021F6C8CF87E00E94AA00AD
:100B1000892BD9F364EF71E080E090E00E9421031B
:100B20000115110509F4A8CF0E940000A5CF0E946D
:100B3000F305A70196010E94010668537F4F8F4F6E
:100B40009F4F85E00E949D023ACF8F929F92AF9275
:100B5000BF92CF92DF92EF92FF92CF93DF93EC019F
:100B6000688179818A819B81611571058105910573
:100B700021F464E279ED8BE597E02DE133EF41E07C
:100B800050E00E94010649015A019B01AC01A7EA0D
:100B9000B1E40E9420066B017C01ACEEB4EFA5012C
:100BA00094010E942E06DC01CB018C0D9D1DAE1D13
:100BB000BF1DB7FF03C00197A109B048888399837F
:100BC000AA83BB83BC01CD019F77DF91CF91FF90BA
:100BD000EF90DF90CF90BF90AF909F908F9008954F
:100BE0000E94A505089581E091E00E94A505089561
:100BF00060930101709302018093030190930401BB
:100C00000895052E97FB1EF400940E94180657FDC8
:100C100007D00E94330607FC03D04EF40C9418064C
:100C200050954095309521953F4F4F4F5F4F089518
:100C300090958095709561957F4F8F4F9F4F089548
:100C40000E945506A59F900DB49F900DA49F800D06
:100C5000911D11240895B7FF0C9420060E942006D0
:100C6000821B930B0895A1E21A2EAA1BBB1BFD0148
:100C70000DC0AA1FBB1FEE1FFF1FA217B307E4077B
:100C8000F50720F0A21BB30BE40BF50B661F771FD3
:100C9000881F991F1A9469F76095709580959095B3
:100CA0009B01AC01BD01CF010895A29FB001B39F8C
:100CB000C001A39F700D811D1124911DB29F700D65
:100CC000811D1124911D0895AA1BBB1B51E107C072
:100CD000AA1FBB1FA617B70710F0A61BB70B881FCC
:100CE000991F5A95A9F780959095BC01CD0108955B
:040CF000F894FFCFA6
:060CF400FF0100000000FA
:00000001FF
