:100000000C9461000C947E000C947E000C947E0095
:100010000C947E000C947E000C947E000C947E0068
:100020000C947E000C947E000C947E000C947E0058
:100030000C947E000C947E000C947E000C947E0048
:100040000C94FC010C947E000C947E000C947E00B9
:100050000C947E000C947E000C947E000C947E0028
:100060000C947E000C947E00000000002400270009
:100070002A0000000000250028002B0000000000DE
:1000800023002600290004040404040404040202DA
:100090000202020203030303030301020408102007
:1000A0004080010204081020010204081020000012
:1000B0000008000201000003040700000000000027
:1000C000000011241FBECFEFD8E0DEBFCDBF11E08E
:1000D000A0E0B1E0E0E8F8E002C005900D92A430A5
:1000E000B107D9F721E0A4E0B1E001C01D92AF3023
:1000F000B207E1F70E9446020C943E040C94000003
:10010000833081F028F4813099F08230A1F0089595
:100110008730A9F08830B9F08430D1F48091800024
:100120008F7D03C0809180008F7780938000089539
:1001300084B58F7702C084B58F7D84BD089580918A
:10014000B0008F7703C08091B0008F7D8093B000A6
:100150000895CF93DF93282F30E0F901E255FF4F48
:100160008491F901E656FF4FD491F901EA57FF4F08
:10017000C491CC2391F081110E948000EC2FF0E01B
:10018000EE0FFF1FE458FF4FA591B491EC91ED23C2
:1001900081E090E021F480E002C080E090E0DF9117
:1001A000CF9108951F93CF93DF93282F30E0F9016B
:1001B000E255FF4F8491F901E656FF4FD491F901C2
:1001C000EA57FF4FC491CC23C9F0162F81110E942A
:1001D0008000EC2FF0E0EE0FFF1FEE58FF4FA591CF
:1001E000B4918FB7F894111105C09C91ED2FE09553
:1001F000E92302C0EC91ED2BEC938FBFDF91CF91FF
:100200001F910895CF93DF9390E0FC01E656FF4FD6
:100210002491FC01EA57FF4F8491882361F190E01B
:10022000880F991FFC01E859FF4FC591D491FC013B
:10023000EE58FF4FA591B491611109C09FB7F89492
:100240008881209582238883EC912E230BC0623015
:1002500061F49FB7F8943881822F80958323888337
:10026000EC912E2B2C939FBF06C08FB7F894E8819A
:100270002E2B28838FBFDF91CF9108951F93CF93AB
:10028000DF93182FEB0161E00E940201209711F427
:1002900060E004C0CF3FD10539F461E0812FDF91E8
:1002A000CF911F910C94D200E12FF0E0E255FF4F67
:1002B000E491E330F9F048F4E130B9F0E230A1F52F
:1002C00084B5806284BDC8BD34C0E730E9F0E83051
:1002D00019F1E43049F580918000806280938000BC
:1002E000D0938B00C0938A0024C084B5806884BDFD
:1002F000C7BD1FC080918000806880938000D0932C
:100300008900C093880015C08091B00080688093F8
:10031000B000C093B3000DC08091B00080628093A4
:10032000B000C093B40005C0C038D1050CF0B5CF03
:10033000AFCFDF91CF911F9108953FB7F89480918F
:10034000090190910A01A0910B01B0910C0126B511
:10035000A89B05C02F3F19F00196A11DB11D3FBFFD
:10036000BA2FA92F982F8827820F911DA11DB11D8B
:10037000BC01CD0142E0660F771F881F991F4A9587
:10038000D1F708958F929F92AF92BF92CF92DF9252
:10039000EF92FF926B017C010E949D014B015C0179
:1003A000C114D104E104F104F1F00E949D01DC01CB
:1003B000CB0188199909AA09BB09883E9340A10578
:1003C000B10570F321E0C21AD108E108F10888EE06
:1003D000880E83E0981EA11CB11CC114D104E10455
:1003E000F10419F7DDCFFF90EF90DF90CF90BF9031
:1003F000AF909F908F9008951F920F920FB60F921B
:1004000011242F933F938F939F93AF93BF9380912A
:10041000050190910601A0910701B091080130916A
:10042000040123E0230F2D3720F40196A11DB11DF7
:1004300005C026E8230F0296A11DB11D20930401DB
:100440008093050190930601A0930701B0930801E2
:100450008091090190910A01A0910B01B0910C01CA
:100460000196A11DB11D8093090190930A01A093EB
:100470000B01B0930C01BF91AF919F918F913F9170
:100480002F910F900FBE0F901F901895789484B500
:10049000826084BD84B5816084BD85B5826085BD80
:1004A00085B5816085BD80916E00816080936E000E
:1004B0001092810080918100826080938100809100
:1004C00081008160809381008091800081608093B1
:1004D00080008091B10084608093B1008091B00071
:1004E00081608093B00080917A00846080937A006C
:1004F00080917A00826080937A0080917A00816096
:1005000080937A0080917A00806880937A001092BC
:10051000C10062E082E00E94020162E08EE00E947F
:10052000020162E088E00E94020161E087E00E942F
:10053000020161E089E00E94020161E08AE00E941C
:10054000020161E08BE00E94020161E086E00E940E
:10055000020161E083E00E94020161E087E00E9405
:10056000D20010920E0110920D0103E010E0C09134
:100570000D01D0910E01CE3F82E0D807E8F5CE0103
:10058000B8010E942A0483E00E943E01BE01CF3FD1
:10059000D10519F010F06FEF70E089E00E943E0184
:1005A000CF3FD105E9F0E0F0BE016F5F71096F3F09
:1005B000710519F010F06FEF70E08AE00E943E01C3
:1005C000CF3F81E0D80760F0BE016E5F71406F3FA2
:1005D000710519F010F06FEF70E08BE00E943E01A2
:1005E00066E070E080E090E00E94C2012196D09326
:1005F0000E01C0930D01BBCF97E3C92ED12CE12C86
:10060000F12C82E00E94A900892B09F056C088E0F5
:100610000E94A900892B09F050C0C0E0D0E0BE01C3
:1006200086E00E943E0160E070E0CB010E94C201C2
:100630002196CF3FD10599F768EE73E080E090E016
:100640000E94C201CDEFD0E08BEAF82ECF9D612D44
:100650001124669570E083E00E943E01BE0189E0AE
:100660000E943E0100910D0110910E010F3F1105F6
:1006700071F068F060E070E08AE00E943E010F3F98
:10068000114028F060E070E08BE00E943E0121976D
:10069000E9F660E087E00E94D20060E070E086E06A
:1006A0000E943E0160E089E00E94D200C0E0D0E0FC
:1006B0002097F1F30E940000FBCF0E94B903A7012D
:1006C00096010E94C70368537F4F8F4F9F4F83E06F
:1006D0000E943E0196CF8F929F92AF92BF92CF928F
:1006E000DF92EF92FF92CF93DF93EC0168817981E3
:1006F0008A819B81611571058105910521F464E270
:1007000079ED8BE597E02DE133EF41E050E00E9479
:10071000C70349015A019B01AC01A7EAB1E40E9459
:10072000E6036B017C01ACEEB4EFA50194010E94DD
:10073000F403DC01CB018C0D9D1DAE1DBF1DB7FF69
:1007400003C00197A109B04888839983AA83BB831A
:10075000BC01CD019F77DF91CF91FF90EF90DF90AB
:10076000CF90BF90AF909F908F9008950E946B03A1
:10077000089580E091E00E946B030895609300016A
:100780007093010180930201909303010895052E57
:1007900097FB1EF400940E94DE0357FD07D00E94D1
:1007A000F90307FC03D04EF40C94DE0350954095FA
:1007B000309521953F4F4F4F5F4F0895909580950D
:1007C000709561957F4F8F4F9F4F08950E941B0436
:1007D000A59F900DB49F900DA49F800D911D112495
:1007E0000895B7FF0C94E6030E94E603821B930B67
:1007F0000895A1E21A2EAA1BBB1BFD010DC0AA1F62
:10080000BB1FEE1FFF1FA217B307E407F50720F079
:10081000A21BB30BE40BF50B661F771F881F991FF4
:100820001A9469F760957095809590959B01AC013D
:10083000BD01CF010895A29FB001B39FC001A39F46
:10084000700D811D1124911DB29F700D811D112409
:10085000911D0895AA1BBB1B51E107C0AA1FBB1F16
:10086000A617B70710F0A61BB70B881F991F5A953C
:10087000A9F780959095BC01CD010895F894FFCF1C
:040880000100000073
:00000001FF
